{
  "_format": "hh-sol-artifact-1",
  "contractName": "Env23",
  "sourceName": "contracts/Env23.sol",
  "abi": [
    {
      "inputs": [],
      "stateMutability": "nonpayable",
      "type": "constructor"
    },
    {
      "anonymous": false,
      "inputs": [
        {
          "indexed": true,
          "internalType": "address",
          "name": "owner",
          "type": "address"
        },
        {
          "indexed": true,
          "internalType": "address",
          "name": "approved",
          "type": "address"
        },
        {
          "indexed": true,
          "internalType": "uint256",
          "name": "tokenId",
          "type": "uint256"
        }
      ],
      "name": "Approval",
      "type": "event"
    },
    {
      "anonymous": false,
      "inputs": [
        {
          "indexed": true,
          "internalType": "address",
          "name": "owner",
          "type": "address"
        },
        {
          "indexed": true,
          "internalType": "address",
          "name": "operator",
          "type": "address"
        },
        {
          "indexed": false,
          "internalType": "bool",
          "name": "approved",
          "type": "bool"
        }
      ],
      "name": "ApprovalForAll",
      "type": "event"
    },
    {
      "anonymous": false,
      "inputs": [
        {
          "indexed": true,
          "internalType": "address",
          "name": "from",
          "type": "address"
        },
        {
          "indexed": true,
          "internalType": "address",
          "name": "to",
          "type": "address"
        },
        {
          "indexed": true,
          "internalType": "uint256",
          "name": "tokenId",
          "type": "uint256"
        }
      ],
      "name": "Transfer",
      "type": "event"
    },
    {
      "inputs": [
        {
          "internalType": "address",
          "name": "to",
          "type": "address"
        },
        {
          "internalType": "uint256",
          "name": "tokenId",
          "type": "uint256"
        }
      ],
      "name": "approve",
      "outputs": [],
      "stateMutability": "nonpayable",
      "type": "function"
    },
    {
      "inputs": [
        {
          "internalType": "address",
          "name": "owner",
          "type": "address"
        }
      ],
      "name": "balanceOf",
      "outputs": [
        {
          "internalType": "uint256",
          "name": "",
          "type": "uint256"
        }
      ],
      "stateMutability": "view",
      "type": "function"
    },
    {
      "inputs": [
        {
          "internalType": "string",
          "name": "a",
          "type": "string"
        },
        {
          "internalType": "string",
          "name": "b",
          "type": "string"
        }
      ],
      "name": "compareStrings",
      "outputs": [
        {
          "internalType": "bool",
          "name": "",
          "type": "bool"
        }
      ],
      "stateMutability": "pure",
      "type": "function"
    },
    {
      "inputs": [
        {
          "internalType": "uint256",
          "name": "tokenId",
          "type": "uint256"
        }
      ],
      "name": "getApproved",
      "outputs": [
        {
          "internalType": "address",
          "name": "",
          "type": "address"
        }
      ],
      "stateMutability": "view",
      "type": "function"
    },
    {
      "inputs": [
        {
          "internalType": "address",
          "name": "owner",
          "type": "address"
        },
        {
          "internalType": "address",
          "name": "operator",
          "type": "address"
        }
      ],
      "name": "isApprovedForAll",
      "outputs": [
        {
          "internalType": "bool",
          "name": "",
          "type": "bool"
        }
      ],
      "stateMutability": "view",
      "type": "function"
    },
    {
      "inputs": [
        {
          "internalType": "uint256",
          "name": "_tokenId",
          "type": "uint256"
        },
        {
          "internalType": "uint256",
          "name": "_level",
          "type": "uint256"
        }
      ],
      "name": "levelUp",
      "outputs": [],
      "stateMutability": "nonpayable",
      "type": "function"
    },
    {
      "inputs": [],
      "name": "name",
      "outputs": [
        {
          "internalType": "string",
          "name": "",
          "type": "string"
        }
      ],
      "stateMutability": "view",
      "type": "function"
    },
    {
      "inputs": [
        {
          "internalType": "uint256",
          "name": "_tokenId",
          "type": "uint256"
        }
      ],
      "name": "nftStage",
      "outputs": [
        {
          "internalType": "uint256",
          "name": "",
          "type": "uint256"
        }
      ],
      "stateMutability": "view",
      "type": "function"
    },
    {
      "inputs": [
        {
          "internalType": "uint256",
          "name": "tokenId",
          "type": "uint256"
        }
      ],
      "name": "ownerOf",
      "outputs": [
        {
          "internalType": "address",
          "name": "",
          "type": "address"
        }
      ],
      "stateMutability": "view",
      "type": "function"
    },
    {
      "inputs": [
        {
          "internalType": "uint256",
          "name": "_tokenId",
          "type": "uint256"
        },
        {
          "internalType": "uint256",
          "name": "_level",
          "type": "uint256"
        }
      ],
      "name": "performUpkeep",
      "outputs": [],
      "stateMutability": "nonpayable",
      "type": "function"
    },
    {
      "inputs": [
        {
          "internalType": "address",
          "name": "to",
          "type": "address"
        },
        {
          "internalType": "uint256",
          "name": "_level",
          "type": "uint256"
        }
      ],
      "name": "safeMint",
      "outputs": [],
      "stateMutability": "nonpayable",
      "type": "function"
    },
    {
      "inputs": [
        {
          "internalType": "address",
          "name": "from",
          "type": "address"
        },
        {
          "internalType": "address",
          "name": "to",
          "type": "address"
        },
        {
          "internalType": "uint256",
          "name": "tokenId",
          "type": "uint256"
        }
      ],
      "name": "safeTransferFrom",
      "outputs": [],
      "stateMutability": "nonpayable",
      "type": "function"
    },
    {
      "inputs": [
        {
          "internalType": "address",
          "name": "from",
          "type": "address"
        },
        {
          "internalType": "address",
          "name": "to",
          "type": "address"
        },
        {
          "internalType": "uint256",
          "name": "tokenId",
          "type": "uint256"
        },
        {
          "internalType": "bytes",
          "name": "data",
          "type": "bytes"
        }
      ],
      "name": "safeTransferFrom",
      "outputs": [],
      "stateMutability": "nonpayable",
      "type": "function"
    },
    {
      "inputs": [
        {
          "internalType": "address",
          "name": "operator",
          "type": "address"
        },
        {
          "internalType": "bool",
          "name": "approved",
          "type": "bool"
        }
      ],
      "name": "setApprovalForAll",
      "outputs": [],
      "stateMutability": "nonpayable",
      "type": "function"
    },
    {
      "inputs": [
        {
          "internalType": "bytes4",
          "name": "interfaceId",
          "type": "bytes4"
        }
      ],
      "name": "supportsInterface",
      "outputs": [
        {
          "internalType": "bool",
          "name": "",
          "type": "bool"
        }
      ],
      "stateMutability": "view",
      "type": "function"
    },
    {
      "inputs": [],
      "name": "symbol",
      "outputs": [
        {
          "internalType": "string",
          "name": "",
          "type": "string"
        }
      ],
      "stateMutability": "view",
      "type": "function"
    },
    {
      "inputs": [
        {
          "internalType": "uint256",
          "name": "tokenId",
          "type": "uint256"
        }
      ],
      "name": "tokenURI",
      "outputs": [
        {
          "internalType": "string",
          "name": "",
          "type": "string"
        }
      ],
      "stateMutability": "view",
      "type": "function"
    },
    {
      "inputs": [
        {
          "internalType": "address",
          "name": "from",
          "type": "address"
        },
        {
          "internalType": "address",
          "name": "to",
          "type": "address"
        },
        {
          "internalType": "uint256",
          "name": "tokenId",
          "type": "uint256"
        }
      ],
      "name": "transferFrom",
      "outputs": [],
      "stateMutability": "nonpayable",
      "type": "function"
    }
  ],
  "bytecode": "0x608060405260405180606001604052806040518060800160405280604381526020016200340360439139815260200160405180608001604052806043815260200162003489604391398152602001604051806080016040528060438152602001620034466043913981525060089060036200007c92919062000131565b503480156200008a57600080fd5b506040518060400160405280600581526020017f456e7632330000000000000000000000000000000000000000000000000000008152506040518060400160405280600381526020017f453233000000000000000000000000000000000000000000000000000000000081525081600090805190602001906200010f92919062000198565b5080600190805190602001906200012892919062000198565b5050506200031b565b82805482825590600052602060002090810192821562000185579160200282015b82811115620001845782518290805190602001906200017392919062000198565b509160200191906001019062000152565b5b50905062000194919062000229565b5090565b828054620001a690620002b6565b90600052602060002090601f016020900481019282620001ca576000855562000216565b82601f10620001e557805160ff191683800117855562000216565b8280016001018555821562000216579182015b8281111562000215578251825591602001919060010190620001f8565b5b50905062000225919062000251565b5090565b5b808211156200024d576000818162000243919062000270565b506001016200022a565b5090565b5b808211156200026c57600081600090555060010162000252565b5090565b5080546200027e90620002b6565b6000825580601f10620002925750620002b3565b601f016020900490600052602060002090810190620002b2919062000251565b5b50565b60006002820490506001821680620002cf57607f821691505b60208210811415620002e657620002e5620002ec565b5b50919050565b7f4e487b7100000000000000000000000000000000000000000000000000000000600052602260045260246000fd5b6130d8806200032b6000396000f3fe608060405234801561001057600080fd5b50600436106101165760003560e01c80636c1d4396116100a2578063a22cb46511610071578063a22cb465146102ef578063b88d4fde1461030b578063bed34bba14610327578063c87b56dd14610357578063e985e9c51461038757610116565b80636c1d43961461025557806370a082311461028557806395d89b41146102b5578063a1448194146102d357610116565b806323b872dd116100e957806323b872dd146101b557806342842e0e146101d15780635226dc93146101ed57806356952b1a146102095780636352211e1461022557610116565b806301ffc9a71461011b57806306fdde031461014b578063081812fc14610169578063095ea7b314610199575b600080fd5b6101356004803603810190610130919061240e565b6103b7565b6040516101429190612847565b60405180910390f35b610153610499565b6040516101609190612862565b60405180910390f35b610183600480360381019061017e91906124cc565b61052b565b60405161019091906127e0565b60405180910390f35b6101b360048036038101906101ae91906123d2565b610571565b005b6101cf60048036038101906101ca91906122cc565b610689565b005b6101eb60048036038101906101e691906122cc565b6106e9565b005b610207600480360381019061020291906124f5565b610709565b005b610223600480360381019061021e91906124f5565b610805565b005b61023f600480360381019061023a91906124cc565b610813565b60405161024c91906127e0565b60405180910390f35b61026f600480360381019061026a91906124cc565b61089a565b60405161027c9190612a04565b60405180910390f35b61029f600480360381019061029a9190612267565b610a7f565b6040516102ac9190612a04565b60405180910390f35b6102bd610b37565b6040516102ca9190612862565b60405180910390f35b6102ed60048036038101906102e891906123d2565b610bc9565b005b61030960048036038101906103049190612396565b610cc6565b005b6103256004803603810190610320919061231b565b610cdc565b005b610341600480360381019061033c9190612460565b610d3e565b60405161034e9190612847565b60405180910390f35b610371600480360381019061036c91906124cc565b610d97565b60405161037e9190612862565b60405180910390f35b6103a1600480360381019061039c9190612290565b610da9565b6040516103ae9190612847565b60405180910390f35b60007f80ac58cd000000000000000000000000000000000000000000000000000000007bffffffffffffffffffffffffffffffffffffffffffffffffffffffff1916827bffffffffffffffffffffffffffffffffffffffffffffffffffffffff1916148061048257507f5b5e139f000000000000000000000000000000000000000000000000000000007bffffffffffffffffffffffffffffffffffffffffffffffffffffffff1916827bffffffffffffffffffffffffffffffffffffffffffffffffffffffff1916145b80610492575061049182610e3d565b5b9050919050565b6060600080546104a890612c29565b80601f01602080910402602001604051908101604052809291908181526020018280546104d490612c29565b80156105215780601f106104f657610100808354040283529160200191610521565b820191906000526020600020905b81548152906001019060200180831161050457829003601f168201915b5050505050905090565b600061053682610ea7565b6004600083815260200190815260200160002060009054906101000a900473ffffffffffffffffffffffffffffffffffffffff169050919050565b600061057c82610813565b90508073ffffffffffffffffffffffffffffffffffffffff168373ffffffffffffffffffffffffffffffffffffffff1614156105ed576040517f08c379a00000000000000000000000000000000000000000000000000000000081526004016105e4906129c4565b60405180910390fd5b8073ffffffffffffffffffffffffffffffffffffffff1661060c610ef2565b73ffffffffffffffffffffffffffffffffffffffff16148061063b575061063a81610635610ef2565b610da9565b5b61067a576040517f08c379a0000000000000000000000000000000000000000000000000000000008152600401610671906129e4565b60405180910390fd5b6106848383610efa565b505050565b61069a610694610ef2565b82610fb3565b6106d9576040517f08c379a00000000000000000000000000000000000000000000000000000000081526004016106d090612884565b60405180910390fd5b6106e4838383611048565b505050565b61070483838360405180602001604052806000815250610cdc565b505050565b60026107148361089a565b1061071e57610801565b600081905060006008828154811061075f577f4e487b7100000000000000000000000000000000000000000000000000000000600052603260045260246000fd5b90600052602060002001805461077490612c29565b80601f01602080910402602001604051908101604052809291908181526020018280546107a090612c29565b80156107ed5780601f106107c2576101008083540402835291602001916107ed565b820191906000526020600020905b8154815290600101906020018083116107d057829003601f168201915b505050505090506107fe8482611342565b50505b5050565b61080f8282610709565b5050565b60008061081f836113b6565b9050600073ffffffffffffffffffffffffffffffffffffffff168173ffffffffffffffffffffffffffffffffffffffff161415610891576040517f08c379a0000000000000000000000000000000000000000000000000000000008152600401610888906129a4565b60405180910390fd5b80915050919050565b6000806108a683610d97565b905061097f8160086000815481106108e7577f4e487b7100000000000000000000000000000000000000000000000000000000600052603260045260246000fd5b9060005260206000200180546108fc90612c29565b80601f016020809104026020016040519081016040528092919081815260200182805461092890612c29565b80156109755780601f1061094a57610100808354040283529160200191610975565b820191906000526020600020905b81548152906001019060200180831161095857829003601f168201915b5050505050610d3e565b1561098e576000915050610a7a565b610a658160086001815481106109cd577f4e487b7100000000000000000000000000000000000000000000000000000000600052603260045260246000fd5b9060005260206000200180546109e290612c29565b80601f0160208091040260200160405190810160405280929190818152602001828054610a0e90612c29565b8015610a5b5780601f10610a3057610100808354040283529160200191610a5b565b820191906000526020600020905b815481529060010190602001808311610a3e57829003601f168201915b5050505050610d3e565b15610a74576001915050610a7a565b60029150505b919050565b60008073ffffffffffffffffffffffffffffffffffffffff168273ffffffffffffffffffffffffffffffffffffffff161415610af0576040517f08c379a0000000000000000000000000000000000000000000000000000000008152600401610ae790612944565b60405180910390fd5b600360008373ffffffffffffffffffffffffffffffffffffffff1673ffffffffffffffffffffffffffffffffffffffff168152602001908152602001600020549050919050565b606060018054610b4690612c29565b80601f0160208091040260200160405190810160405280929190818152602001828054610b7290612c29565b8015610bbf5780601f10610b9457610100808354040283529160200191610bbf565b820191906000526020600020905b815481529060010190602001808311610ba257829003601f168201915b5050505050905090565b6000610bd560076113f3565b9050610be16007611401565b610beb8382611417565b610cc18160088481548110610c29577f4e487b7100000000000000000000000000000000000000000000000000000000600052603260045260246000fd5b906000526020600020018054610c3e90612c29565b80601f0160208091040260200160405190810160405280929190818152602001828054610c6a90612c29565b8015610cb75780601f10610c8c57610100808354040283529160200191610cb7565b820191906000526020600020905b815481529060010190602001808311610c9a57829003601f168201915b5050505050611342565b505050565b610cd8610cd1610ef2565b8383611435565b5050565b610ced610ce7610ef2565b83610fb3565b610d2c576040517f08c379a0000000000000000000000000000000000000000000000000000000008152600401610d2390612884565b60405180910390fd5b610d38848484846115a2565b50505050565b600081604051602001610d5191906127a5565b6040516020818303038152906040528051906020012083604051602001610d7891906127a5565b6040516020818303038152906040528051906020012014905092915050565b6060610da2826115fe565b9050919050565b6000600560008473ffffffffffffffffffffffffffffffffffffffff1673ffffffffffffffffffffffffffffffffffffffff16815260200190815260200160002060008373ffffffffffffffffffffffffffffffffffffffff1673ffffffffffffffffffffffffffffffffffffffff16815260200190815260200160002060009054906101000a900460ff16905092915050565b60007f01ffc9a7000000000000000000000000000000000000000000000000000000007bffffffffffffffffffffffffffffffffffffffffffffffffffffffff1916827bffffffffffffffffffffffffffffffffffffffffffffffffffffffff1916149050919050565b610eb081611711565b610eef576040517f08c379a0000000000000000000000000000000000000000000000000000000008152600401610ee6906129a4565b60405180910390fd5b50565b600033905090565b816004600083815260200190815260200160002060006101000a81548173ffffffffffffffffffffffffffffffffffffffff021916908373ffffffffffffffffffffffffffffffffffffffff160217905550808273ffffffffffffffffffffffffffffffffffffffff16610f6d83610813565b73ffffffffffffffffffffffffffffffffffffffff167f8c5be1e5ebec7d5bd14f71427d1e84f3dd0314c0f7b2291e5b200ac8c7c3b92560405160405180910390a45050565b600080610fbf83610813565b90508073ffffffffffffffffffffffffffffffffffffffff168473ffffffffffffffffffffffffffffffffffffffff16148061100157506110008185610da9565b5b8061103f57508373ffffffffffffffffffffffffffffffffffffffff166110278461052b565b73ffffffffffffffffffffffffffffffffffffffff16145b91505092915050565b8273ffffffffffffffffffffffffffffffffffffffff1661106882610813565b73ffffffffffffffffffffffffffffffffffffffff16146110be576040517f08c379a00000000000000000000000000000000000000000000000000000000081526004016110b5906128c4565b60405180910390fd5b600073ffffffffffffffffffffffffffffffffffffffff168273ffffffffffffffffffffffffffffffffffffffff16141561112e576040517f08c379a000000000000000000000000000000000000000000000000000000000815260040161112590612904565b60405180910390fd5b61113b8383836001611752565b8273ffffffffffffffffffffffffffffffffffffffff1661115b82610813565b73ffffffffffffffffffffffffffffffffffffffff16146111b1576040517f08c379a00000000000000000000000000000000000000000000000000000000081526004016111a8906128c4565b60405180910390fd5b6004600082815260200190815260200160002060006101000a81549073ffffffffffffffffffffffffffffffffffffffff02191690556001600360008573ffffffffffffffffffffffffffffffffffffffff1673ffffffffffffffffffffffffffffffffffffffff168152602001908152602001600020600082825403925050819055506001600360008473ffffffffffffffffffffffffffffffffffffffff1673ffffffffffffffffffffffffffffffffffffffff16815260200190815260200160002060008282540192505081905550816002600083815260200190815260200160002060006101000a81548173ffffffffffffffffffffffffffffffffffffffff021916908373ffffffffffffffffffffffffffffffffffffffff160217905550808273ffffffffffffffffffffffffffffffffffffffff168473ffffffffffffffffffffffffffffffffffffffff167fddf252ad1be2c89b69c2b068fc378daa952ba7f163c4a11628f55a4df523b3ef60405160405180910390a461133d8383836001611878565b505050565b61134b82611711565b61138a576040517f08c379a000000000000000000000000000000000000000000000000000000000815260040161138190612964565b60405180910390fd5b806006600084815260200190815260200160002090805190602001906113b192919061208b565b505050565b60006002600083815260200190815260200160002060009054906101000a900473ffffffffffffffffffffffffffffffffffffffff169050919050565b600081600001549050919050565b6001816000016000828254019250508190555050565b61143182826040518060200160405280600081525061187e565b5050565b8173ffffffffffffffffffffffffffffffffffffffff168373ffffffffffffffffffffffffffffffffffffffff1614156114a4576040517f08c379a000000000000000000000000000000000000000000000000000000000815260040161149b90612924565b60405180910390fd5b80600560008573ffffffffffffffffffffffffffffffffffffffff1673ffffffffffffffffffffffffffffffffffffffff16815260200190815260200160002060008473ffffffffffffffffffffffffffffffffffffffff1673ffffffffffffffffffffffffffffffffffffffff16815260200190815260200160002060006101000a81548160ff0219169083151502179055508173ffffffffffffffffffffffffffffffffffffffff168373ffffffffffffffffffffffffffffffffffffffff167f17307eab39ab6107e8899845ad3d59bd9653f200f220920489ca2b5937696c31836040516115959190612847565b60405180910390a3505050565b6115ad848484611048565b6115b9848484846118d9565b6115f8576040517f08c379a00000000000000000000000000000000000000000000000000000000081526004016115ef906128a4565b60405180910390fd5b50505050565b606061160982610ea7565b600060066000848152602001908152602001600020805461162990612c29565b80601f016020809104026020016040519081016040528092919081815260200182805461165590612c29565b80156116a25780601f10611677576101008083540402835291602001916116a2565b820191906000526020600020905b81548152906001019060200180831161168557829003601f168201915b5050505050905060006116b3611a70565b90506000815114156116c957819250505061170c565b6000825111156116fe5780826040516020016116e69291906127bc565b6040516020818303038152906040529250505061170c565b61170784611a87565b925050505b919050565b60008073ffffffffffffffffffffffffffffffffffffffff16611733836113b6565b73ffffffffffffffffffffffffffffffffffffffff1614159050919050565b600181111561187257600073ffffffffffffffffffffffffffffffffffffffff168473ffffffffffffffffffffffffffffffffffffffff16146117e65780600360008673ffffffffffffffffffffffffffffffffffffffff1673ffffffffffffffffffffffffffffffffffffffff16815260200190815260200160002060008282546117de9190612b3f565b925050819055505b600073ffffffffffffffffffffffffffffffffffffffff168373ffffffffffffffffffffffffffffffffffffffff16146118715780600360008573ffffffffffffffffffffffffffffffffffffffff1673ffffffffffffffffffffffffffffffffffffffff16815260200190815260200160002060008282546118699190612ae9565b925050819055505b5b50505050565b50505050565b6118888383611aef565b61189560008484846118d9565b6118d4576040517f08c379a00000000000000000000000000000000000000000000000000000000081526004016118cb906128a4565b60405180910390fd5b505050565b60006118fa8473ffffffffffffffffffffffffffffffffffffffff16611d0d565b15611a63578373ffffffffffffffffffffffffffffffffffffffff1663150b7a02611923610ef2565b8786866040518563ffffffff1660e01b815260040161194594939291906127fb565b602060405180830381600087803b15801561195f57600080fd5b505af192505050801561199057506040513d601f19601f8201168201806040525081019061198d9190612437565b60015b611a13573d80600081146119c0576040519150601f19603f3d011682016040523d82523d6000602084013e6119c5565b606091505b50600081511415611a0b576040517f08c379a0000000000000000000000000000000000000000000000000000000008152600401611a02906128a4565b60405180910390fd5b805181602001fd5b63150b7a0260e01b7bffffffffffffffffffffffffffffffffffffffffffffffffffffffff1916817bffffffffffffffffffffffffffffffffffffffffffffffffffffffff191614915050611a68565b600190505b949350505050565b606060405180602001604052806000815250905090565b6060611a9282610ea7565b6000611a9c611a70565b90506000815111611abc5760405180602001604052806000815250611ae7565b80611ac684611d30565b604051602001611ad79291906127bc565b6040516020818303038152906040525b915050919050565b600073ffffffffffffffffffffffffffffffffffffffff168273ffffffffffffffffffffffffffffffffffffffff161415611b5f576040517f08c379a0000000000000000000000000000000000000000000000000000000008152600401611b5690612984565b60405180910390fd5b611b6881611711565b15611ba8576040517f08c379a0000000000000000000000000000000000000000000000000000000008152600401611b9f906128e4565b60405180910390fd5b611bb6600083836001611752565b611bbf81611711565b15611bff576040517f08c379a0000000000000000000000000000000000000000000000000000000008152600401611bf6906128e4565b60405180910390fd5b6001600360008473ffffffffffffffffffffffffffffffffffffffff1673ffffffffffffffffffffffffffffffffffffffff16815260200190815260200160002060008282540192505081905550816002600083815260200190815260200160002060006101000a81548173ffffffffffffffffffffffffffffffffffffffff021916908373ffffffffffffffffffffffffffffffffffffffff160217905550808273ffffffffffffffffffffffffffffffffffffffff16600073ffffffffffffffffffffffffffffffffffffffff167fddf252ad1be2c89b69c2b068fc378daa952ba7f163c4a11628f55a4df523b3ef60405160405180910390a4611d09600083836001611878565b5050565b6000808273ffffffffffffffffffffffffffffffffffffffff163b119050919050565b606060006001611d3f84611e54565b01905060008167ffffffffffffffff811115611d84577f4e487b7100000000000000000000000000000000000000000000000000000000600052604160045260246000fd5b6040519080825280601f01601f191660200182016040528015611db65781602001600182028036833780820191505090505b509050600082602001820190505b600115611e49578080600190039150507f3031323334353637383961626364656600000000000000000000000000000000600a86061a8153600a8581611e33577f4e487b7100000000000000000000000000000000000000000000000000000000600052601260045260246000fd5b0494506000851415611e4457611e49565b611dc4565b819350505050919050565b600080600090507a184f03e93ff9f4daa797ed6e38ed64bf6a1f0100000000000000008310611ed8577a184f03e93ff9f4daa797ed6e38ed64bf6a1f0100000000000000008381611ece577f4e487b7100000000000000000000000000000000000000000000000000000000600052601260045260246000fd5b0492506040810190505b6d04ee2d6d415b85acef81000000008310611f3b576d04ee2d6d415b85acef81000000008381611f31577f4e487b7100000000000000000000000000000000000000000000000000000000600052601260045260246000fd5b0492506020810190505b662386f26fc100008310611f9057662386f26fc100008381611f86577f4e487b7100000000000000000000000000000000000000000000000000000000600052601260045260246000fd5b0492506010810190505b6305f5e1008310611fdf576305f5e1008381611fd5577f4e487b7100000000000000000000000000000000000000000000000000000000600052601260045260246000fd5b0492506008810190505b612710831061202a576127108381612020577f4e487b7100000000000000000000000000000000000000000000000000000000600052601260045260246000fd5b0492506004810190505b606483106120735760648381612069577f4e487b7100000000000000000000000000000000000000000000000000000000600052601260045260246000fd5b0492506002810190505b600a8310612082576001810190505b80915050919050565b82805461209790612c29565b90600052602060002090601f0160209004810192826120b95760008555612100565b82601f106120d257805160ff1916838001178555612100565b82800160010185558215612100579182015b828111156120ff5782518255916020019190600101906120e4565b5b50905061210d9190612111565b5090565b5b8082111561212a576000816000905550600101612112565b5090565b600061214161213c84612a44565b612a1f565b90508281526020810184848401111561215957600080fd5b612164848285612be7565b509392505050565b600061217f61217a84612a75565b612a1f565b90508281526020810184848401111561219757600080fd5b6121a2848285612be7565b509392505050565b6000813590506121b981613046565b92915050565b6000813590506121ce8161305d565b92915050565b6000813590506121e381613074565b92915050565b6000815190506121f881613074565b92915050565b600082601f83011261220f57600080fd5b813561221f84826020860161212e565b91505092915050565b600082601f83011261223957600080fd5b813561224984826020860161216c565b91505092915050565b6000813590506122618161308b565b92915050565b60006020828403121561227957600080fd5b6000612287848285016121aa565b91505092915050565b600080604083850312156122a357600080fd5b60006122b1858286016121aa565b92505060206122c2858286016121aa565b9150509250929050565b6000806000606084860312156122e157600080fd5b60006122ef868287016121aa565b9350506020612300868287016121aa565b925050604061231186828701612252565b9150509250925092565b6000806000806080858703121561233157600080fd5b600061233f878288016121aa565b9450506020612350878288016121aa565b935050604061236187828801612252565b925050606085013567ffffffffffffffff81111561237e57600080fd5b61238a878288016121fe565b91505092959194509250565b600080604083850312156123a957600080fd5b60006123b7858286016121aa565b92505060206123c8858286016121bf565b9150509250929050565b600080604083850312156123e557600080fd5b60006123f3858286016121aa565b925050602061240485828601612252565b9150509250929050565b60006020828403121561242057600080fd5b600061242e848285016121d4565b91505092915050565b60006020828403121561244957600080fd5b6000612457848285016121e9565b91505092915050565b6000806040838503121561247357600080fd5b600083013567ffffffffffffffff81111561248d57600080fd5b61249985828601612228565b925050602083013567ffffffffffffffff8111156124b657600080fd5b6124c285828601612228565b9150509250929050565b6000602082840312156124de57600080fd5b60006124ec84828501612252565b91505092915050565b6000806040838503121561250857600080fd5b600061251685828601612252565b925050602061252785828601612252565b9150509250929050565b61253a81612b73565b82525050565b61254981612b85565b82525050565b600061255a82612aa6565b6125648185612abc565b9350612574818560208601612bf6565b61257d81612d19565b840191505092915050565b600061259382612ab1565b61259d8185612acd565b93506125ad818560208601612bf6565b6125b681612d19565b840191505092915050565b60006125cc82612ab1565b6125d68185612ade565b93506125e6818560208601612bf6565b80840191505092915050565b60006125ff602d83612acd565b915061260a82612d2a565b604082019050919050565b6000612622603283612acd565b915061262d82612d79565b604082019050919050565b6000612645602583612acd565b915061265082612dc8565b604082019050919050565b6000612668601c83612acd565b915061267382612e17565b602082019050919050565b600061268b602483612acd565b915061269682612e40565b604082019050919050565b60006126ae601983612acd565b91506126b982612e8f565b602082019050919050565b60006126d1602983612acd565b91506126dc82612eb8565b604082019050919050565b60006126f4602e83612acd565b91506126ff82612f07565b604082019050919050565b6000612717602083612acd565b915061272282612f56565b602082019050919050565b600061273a601883612acd565b915061274582612f7f565b602082019050919050565b600061275d602183612acd565b915061276882612fa8565b604082019050919050565b6000612780603d83612acd565b915061278b82612ff7565b604082019050919050565b61279f81612bdd565b82525050565b60006127b182846125c1565b915081905092915050565b60006127c882856125c1565b91506127d482846125c1565b91508190509392505050565b60006020820190506127f56000830184612531565b92915050565b60006080820190506128106000830187612531565b61281d6020830186612531565b61282a6040830185612796565b818103606083015261283c818461254f565b905095945050505050565b600060208201905061285c6000830184612540565b92915050565b6000602082019050818103600083015261287c8184612588565b905092915050565b6000602082019050818103600083015261289d816125f2565b9050919050565b600060208201905081810360008301526128bd81612615565b9050919050565b600060208201905081810360008301526128dd81612638565b9050919050565b600060208201905081810360008301526128fd8161265b565b9050919050565b6000602082019050818103600083015261291d8161267e565b9050919050565b6000602082019050818103600083015261293d816126a1565b9050919050565b6000602082019050818103600083015261295d816126c4565b9050919050565b6000602082019050818103600083015261297d816126e7565b9050919050565b6000602082019050818103600083015261299d8161270a565b9050919050565b600060208201905081810360008301526129bd8161272d565b9050919050565b600060208201905081810360008301526129dd81612750565b9050919050565b600060208201905081810360008301526129fd81612773565b9050919050565b6000602082019050612a196000830184612796565b92915050565b6000612a29612a3a565b9050612a358282612c5b565b919050565b6000604051905090565b600067ffffffffffffffff821115612a5f57612a5e612cea565b5b612a6882612d19565b9050602081019050919050565b600067ffffffffffffffff821115612a9057612a8f612cea565b5b612a9982612d19565b9050602081019050919050565b600081519050919050565b600081519050919050565b600082825260208201905092915050565b600082825260208201905092915050565b600081905092915050565b6000612af482612bdd565b9150612aff83612bdd565b9250827fffffffffffffffffffffffffffffffffffffffffffffffffffffffffffffffff03821115612b3457612b33612c8c565b5b828201905092915050565b6000612b4a82612bdd565b9150612b5583612bdd565b925082821015612b6857612b67612c8c565b5b828203905092915050565b6000612b7e82612bbd565b9050919050565b60008115159050919050565b60007fffffffff0000000000000000000000000000000000000000000000000000000082169050919050565b600073ffffffffffffffffffffffffffffffffffffffff82169050919050565b6000819050919050565b82818337600083830152505050565b60005b83811015612c14578082015181840152602081019050612bf9565b83811115612c23576000848401525b50505050565b60006002820490506001821680612c4157607f821691505b60208210811415612c5557612c54612cbb565b5b50919050565b612c6482612d19565b810181811067ffffffffffffffff82111715612c8357612c82612cea565b5b80604052505050565b7f4e487b7100000000000000000000000000000000000000000000000000000000600052601160045260246000fd5b7f4e487b7100000000000000000000000000000000000000000000000000000000600052602260045260246000fd5b7f4e487b7100000000000000000000000000000000000000000000000000000000600052604160045260246000fd5b6000601f19601f8301169050919050565b7f4552433732313a2063616c6c6572206973206e6f7420746f6b656e206f776e6560008201527f72206f7220617070726f76656400000000000000000000000000000000000000602082015250565b7f4552433732313a207472616e7366657220746f206e6f6e20455243373231526560008201527f63656976657220696d706c656d656e7465720000000000000000000000000000602082015250565b7f4552433732313a207472616e736665722066726f6d20696e636f72726563742060008201527f6f776e6572000000000000000000000000000000000000000000000000000000602082015250565b7f4552433732313a20746f6b656e20616c7265616479206d696e74656400000000600082015250565b7f4552433732313a207472616e7366657220746f20746865207a65726f2061646460008201527f7265737300000000000000000000000000000000000000000000000000000000602082015250565b7f4552433732313a20617070726f766520746f2063616c6c657200000000000000600082015250565b7f4552433732313a2061646472657373207a65726f206973206e6f74206120766160008201527f6c6964206f776e65720000000000000000000000000000000000000000000000602082015250565b7f45524337323155524953746f726167653a2055524920736574206f66206e6f6e60008201527f6578697374656e7420746f6b656e000000000000000000000000000000000000602082015250565b7f4552433732313a206d696e7420746f20746865207a65726f2061646472657373600082015250565b7f4552433732313a20696e76616c696420746f6b656e2049440000000000000000600082015250565b7f4552433732313a20617070726f76616c20746f2063757272656e74206f776e6560008201527f7200000000000000000000000000000000000000000000000000000000000000602082015250565b7f4552433732313a20617070726f76652063616c6c6572206973206e6f7420746f60008201527f6b656e206f776e6572206f7220617070726f76656420666f7220616c6c000000602082015250565b61304f81612b73565b811461305a57600080fd5b50565b61306681612b85565b811461307157600080fd5b50565b61307d81612b91565b811461308857600080fd5b50565b61309481612bdd565b811461309f57600080fd5b5056fea26469706673582212208d794162dde7ed25b7203078a7d7c38f30f549e0e72900eb29ac935b0611795164736f6c6343000804003368747470733a2f2f697066732e696f2f697066732f516d655266316a455a656e57544d795855737271747a4c6875543539514d4451424834364c4662513768766a765968747470733a2f2f697066732e696f2f697066732f516d645954715541687645573769745948477462745372445773537031574466723274506159714653733468593268747470733a2f2f697066732e696f2f697066732f516d614c38686943736e4d754e4b577577777150746447575043667659385566756d5a5058554474747353797971",
  "linkReferences": {},
  "deployedLinkReferences": {}
}